{
  "contractName": "FestivalNFT",
  "abi": [
    {
      "inputs": [
        {
          "internalType": "string",
          "name": "festName",
          "type": "string"
        },
        {
          "internalType": "string",
          "name": "FestSymbol",
          "type": "string"
        },
        {
          "internalType": "uint256",
          "name": "ticketPrice",
          "type": "uint256"
        },
        {
          "internalType": "uint256",
          "name": "totalSupply",
          "type": "uint256"
        },
        {
          "internalType": "address",
          "name": "organiser",
          "type": "address"
        }
      ],
      "stateMutability": "nonpayable",
      "type": "constructor"
    },
    {
      "anonymous": false,
      "inputs": [
        {
          "indexed": true,
          "internalType": "address",
          "name": "owner",
          "type": "address"
        },
        {
          "indexed": true,
          "internalType": "address",
          "name": "approved",
          "type": "address"
        },
        {
          "indexed": true,
          "internalType": "uint256",
          "name": "tokenId",
          "type": "uint256"
        }
      ],
      "name": "Approval",
      "type": "event"
    },
    {
      "anonymous": false,
      "inputs": [
        {
          "indexed": true,
          "internalType": "address",
          "name": "owner",
          "type": "address"
        },
        {
          "indexed": true,
          "internalType": "address",
          "name": "operator",
          "type": "address"
        },
        {
          "indexed": false,
          "internalType": "bool",
          "name": "approved",
          "type": "bool"
        }
      ],
      "name": "ApprovalForAll",
      "type": "event"
    },
    {
      "anonymous": false,
      "inputs": [
        {
          "indexed": true,
          "internalType": "bytes32",
          "name": "role",
          "type": "bytes32"
        },
        {
          "indexed": true,
          "internalType": "bytes32",
          "name": "previousAdminRole",
          "type": "bytes32"
        },
        {
          "indexed": true,
          "internalType": "bytes32",
          "name": "newAdminRole",
          "type": "bytes32"
        }
      ],
      "name": "RoleAdminChanged",
      "type": "event"
    },
    {
      "anonymous": false,
      "inputs": [
        {
          "indexed": true,
          "internalType": "bytes32",
          "name": "role",
          "type": "bytes32"
        },
        {
          "indexed": true,
          "internalType": "address",
          "name": "account",
          "type": "address"
        },
        {
          "indexed": true,
          "internalType": "address",
          "name": "sender",
          "type": "address"
        }
      ],
      "name": "RoleGranted",
      "type": "event"
    },
    {
      "anonymous": false,
      "inputs": [
        {
          "indexed": true,
          "internalType": "bytes32",
          "name": "role",
          "type": "bytes32"
        },
        {
          "indexed": true,
          "internalType": "address",
          "name": "account",
          "type": "address"
        },
        {
          "indexed": true,
          "internalType": "address",
          "name": "sender",
          "type": "address"
        }
      ],
      "name": "RoleRevoked",
      "type": "event"
    },
    {
      "anonymous": false,
      "inputs": [
        {
          "indexed": true,
          "internalType": "address",
          "name": "from",
          "type": "address"
        },
        {
          "indexed": true,
          "internalType": "address",
          "name": "to",
          "type": "address"
        },
        {
          "indexed": true,
          "internalType": "uint256",
          "name": "tokenId",
          "type": "uint256"
        }
      ],
      "name": "Transfer",
      "type": "event"
    },
    {
      "inputs": [],
      "name": "DEFAULT_ADMIN_ROLE",
      "outputs": [
        {
          "internalType": "bytes32",
          "name": "",
          "type": "bytes32"
        }
      ],
      "stateMutability": "view",
      "type": "function"
    },
    {
      "inputs": [],
      "name": "MINTER_ROLE",
      "outputs": [
        {
          "internalType": "bytes32",
          "name": "",
          "type": "bytes32"
        }
      ],
      "stateMutability": "view",
      "type": "function"
    },
    {
      "inputs": [
        {
          "internalType": "address",
          "name": "to",
          "type": "address"
        },
        {
          "internalType": "uint256",
          "name": "tokenId",
          "type": "uint256"
        }
      ],
      "name": "approve",
      "outputs": [],
      "stateMutability": "nonpayable",
      "type": "function"
    },
    {
      "inputs": [
        {
          "internalType": "address",
          "name": "owner",
          "type": "address"
        }
      ],
      "name": "balanceOf",
      "outputs": [
        {
          "internalType": "uint256",
          "name": "",
          "type": "uint256"
        }
      ],
      "stateMutability": "view",
      "type": "function"
    },
    {
      "inputs": [],
      "name": "baseURI",
      "outputs": [
        {
          "internalType": "string",
          "name": "",
          "type": "string"
        }
      ],
      "stateMutability": "view",
      "type": "function"
    },
    {
      "inputs": [
        {
          "internalType": "uint256",
          "name": "tokenId",
          "type": "uint256"
        }
      ],
      "name": "getApproved",
      "outputs": [
        {
          "internalType": "address",
          "name": "",
          "type": "address"
        }
      ],
      "stateMutability": "view",
      "type": "function"
    },
    {
      "inputs": [
        {
          "internalType": "bytes32",
          "name": "role",
          "type": "bytes32"
        }
      ],
      "name": "getRoleAdmin",
      "outputs": [
        {
          "internalType": "bytes32",
          "name": "",
          "type": "bytes32"
        }
      ],
      "stateMutability": "view",
      "type": "function"
    },
    {
      "inputs": [
        {
          "internalType": "bytes32",
          "name": "role",
          "type": "bytes32"
        },
        {
          "internalType": "uint256",
          "name": "index",
          "type": "uint256"
        }
      ],
      "name": "getRoleMember",
      "outputs": [
        {
          "internalType": "address",
          "name": "",
          "type": "address"
        }
      ],
      "stateMutability": "view",
      "type": "function"
    },
    {
      "inputs": [
        {
          "internalType": "bytes32",
          "name": "role",
          "type": "bytes32"
        }
      ],
      "name": "getRoleMemberCount",
      "outputs": [
        {
          "internalType": "uint256",
          "name": "",
          "type": "uint256"
        }
      ],
      "stateMutability": "view",
      "type": "function"
    },
    {
      "inputs": [
        {
          "internalType": "bytes32",
          "name": "role",
          "type": "bytes32"
        },
        {
          "internalType": "address",
          "name": "account",
          "type": "address"
        }
      ],
      "name": "grantRole",
      "outputs": [],
      "stateMutability": "nonpayable",
      "type": "function"
    },
    {
      "inputs": [
        {
          "internalType": "bytes32",
          "name": "role",
          "type": "bytes32"
        },
        {
          "internalType": "address",
          "name": "account",
          "type": "address"
        }
      ],
      "name": "hasRole",
      "outputs": [
        {
          "internalType": "bool",
          "name": "",
          "type": "bool"
        }
      ],
      "stateMutability": "view",
      "type": "function"
    },
    {
      "inputs": [
        {
          "internalType": "address",
          "name": "owner",
          "type": "address"
        },
        {
          "internalType": "address",
          "name": "operator",
          "type": "address"
        }
      ],
      "name": "isApprovedForAll",
      "outputs": [
        {
          "internalType": "bool",
          "name": "",
          "type": "bool"
        }
      ],
      "stateMutability": "view",
      "type": "function"
    },
    {
      "inputs": [],
      "name": "name",
      "outputs": [
        {
          "internalType": "string",
          "name": "",
          "type": "string"
        }
      ],
      "stateMutability": "view",
      "type": "function"
    },
    {
      "inputs": [
        {
          "internalType": "uint256",
          "name": "tokenId",
          "type": "uint256"
        }
      ],
      "name": "ownerOf",
      "outputs": [
        {
          "internalType": "address",
          "name": "",
          "type": "address"
        }
      ],
      "stateMutability": "view",
      "type": "function"
    },
    {
      "inputs": [
        {
          "internalType": "bytes32",
          "name": "role",
          "type": "bytes32"
        },
        {
          "internalType": "address",
          "name": "account",
          "type": "address"
        }
      ],
      "name": "renounceRole",
      "outputs": [],
      "stateMutability": "nonpayable",
      "type": "function"
    },
    {
      "inputs": [
        {
          "internalType": "bytes32",
          "name": "role",
          "type": "bytes32"
        },
        {
          "internalType": "address",
          "name": "account",
          "type": "address"
        }
      ],
      "name": "revokeRole",
      "outputs": [],
      "stateMutability": "nonpayable",
      "type": "function"
    },
    {
      "inputs": [
        {
          "internalType": "address",
          "name": "from",
          "type": "address"
        },
        {
          "internalType": "address",
          "name": "to",
          "type": "address"
        },
        {
          "internalType": "uint256",
          "name": "tokenId",
          "type": "uint256"
        }
      ],
      "name": "safeTransferFrom",
      "outputs": [],
      "stateMutability": "nonpayable",
      "type": "function"
    },
    {
      "inputs": [
        {
          "internalType": "address",
          "name": "from",
          "type": "address"
        },
        {
          "internalType": "address",
          "name": "to",
          "type": "address"
        },
        {
          "internalType": "uint256",
          "name": "tokenId",
          "type": "uint256"
        },
        {
          "internalType": "bytes",
          "name": "_data",
          "type": "bytes"
        }
      ],
      "name": "safeTransferFrom",
      "outputs": [],
      "stateMutability": "nonpayable",
      "type": "function"
    },
    {
      "inputs": [
        {
          "internalType": "address",
          "name": "operator",
          "type": "address"
        },
        {
          "internalType": "bool",
          "name": "approved",
          "type": "bool"
        }
      ],
      "name": "setApprovalForAll",
      "outputs": [],
      "stateMutability": "nonpayable",
      "type": "function"
    },
    {
      "inputs": [
        {
          "internalType": "bytes4",
          "name": "interfaceId",
          "type": "bytes4"
        }
      ],
      "name": "supportsInterface",
      "outputs": [
        {
          "internalType": "bool",
          "name": "",
          "type": "bool"
        }
      ],
      "stateMutability": "view",
      "type": "function"
    },
    {
      "inputs": [],
      "name": "symbol",
      "outputs": [
        {
          "internalType": "string",
          "name": "",
          "type": "string"
        }
      ],
      "stateMutability": "view",
      "type": "function"
    },
    {
      "inputs": [
        {
          "internalType": "uint256",
          "name": "index",
          "type": "uint256"
        }
      ],
      "name": "tokenByIndex",
      "outputs": [
        {
          "internalType": "uint256",
          "name": "",
          "type": "uint256"
        }
      ],
      "stateMutability": "view",
      "type": "function"
    },
    {
      "inputs": [
        {
          "internalType": "address",
          "name": "owner",
          "type": "address"
        },
        {
          "internalType": "uint256",
          "name": "index",
          "type": "uint256"
        }
      ],
      "name": "tokenOfOwnerByIndex",
      "outputs": [
        {
          "internalType": "uint256",
          "name": "",
          "type": "uint256"
        }
      ],
      "stateMutability": "view",
      "type": "function"
    },
    {
      "inputs": [
        {
          "internalType": "uint256",
          "name": "tokenId",
          "type": "uint256"
        }
      ],
      "name": "tokenURI",
      "outputs": [
        {
          "internalType": "string",
          "name": "",
          "type": "string"
        }
      ],
      "stateMutability": "view",
      "type": "function"
    },
    {
      "inputs": [],
      "name": "totalSupply",
      "outputs": [
        {
          "internalType": "uint256",
          "name": "",
          "type": "uint256"
        }
      ],
      "stateMutability": "view",
      "type": "function"
    },
    {
      "inputs": [
        {
          "internalType": "address",
          "name": "from",
          "type": "address"
        },
        {
          "internalType": "address",
          "name": "to",
          "type": "address"
        },
        {
          "internalType": "uint256",
          "name": "tokenId",
          "type": "uint256"
        }
      ],
      "name": "transferFrom",
      "outputs": [],
      "stateMutability": "nonpayable",
      "type": "function"
    },
    {
      "inputs": [
        {
          "internalType": "address",
          "name": "buyer",
          "type": "address"
        }
      ],
      "name": "transferTicket",
      "outputs": [],
      "stateMutability": "nonpayable",
      "type": "function"
    },
    {
      "inputs": [
        {
          "internalType": "address",
          "name": "buyer",
          "type": "address"
        },
        {
          "internalType": "uint256",
          "name": "saleTicketId",
          "type": "uint256"
        }
      ],
      "name": "secondaryTransferTicket",
      "outputs": [],
      "stateMutability": "nonpayable",
      "type": "function"
    },
    {
      "inputs": [
        {
          "internalType": "uint256",
          "name": "ticketId",
          "type": "uint256"
        },
        {
          "internalType": "uint256",
          "name": "sellingPrice",
          "type": "uint256"
        },
        {
          "internalType": "address",
          "name": "operator",
          "type": "address"
        }
      ],
      "name": "setSaleDetails",
      "outputs": [],
      "stateMutability": "nonpayable",
      "type": "function"
    },
    {
      "inputs": [],
      "name": "getTicketPrice",
      "outputs": [
        {
          "internalType": "uint256",
          "name": "",
          "type": "uint256"
        }
      ],
      "stateMutability": "view",
      "type": "function"
    },
    {
      "inputs": [],
      "name": "getOrganiser",
      "outputs": [
        {
          "internalType": "address",
          "name": "",
          "type": "address"
        }
      ],
      "stateMutability": "view",
      "type": "function"
    },
    {
      "inputs": [
        {
          "internalType": "uint256",
          "name": "ticketId",
          "type": "uint256"
        }
      ],
      "name": "getSellingPrice",
      "outputs": [
        {
          "internalType": "uint256",
          "name": "",
          "type": "uint256"
        }
      ],
      "stateMutability": "view",
      "type": "function"
    },
    {
      "inputs": [],
      "name": "getTicketsForSale",
      "outputs": [
        {
          "internalType": "uint256[]",
          "name": "",
          "type": "uint256[]"
        }
      ],
      "stateMutability": "view",
      "type": "function"
    },
    {
      "inputs": [
        {
          "internalType": "uint256",
          "name": "ticketId",
          "type": "uint256"
        }
      ],
      "name": "getTicketDetails",
      "outputs": [
        {
          "internalType": "uint256",
          "name": "purchasePrice",
          "type": "uint256"
        },
        {
          "internalType": "uint256",
          "name": "sellingPrice",
          "type": "uint256"
        },
        {
          "internalType": "bool",
          "name": "forSale",
          "type": "bool"
        }
      ],
      "stateMutability": "view",
      "type": "function"
    },
    {
      "inputs": [
        {
          "internalType": "address",
          "name": "customer",
          "type": "address"
        }
      ],
      "name": "getTicketsOfCustomer",
      "outputs": [
        {
          "internalType": "uint256[]",
          "name": "",
          "type": "uint256[]"
        }
      ],
      "stateMutability": "view",
      "type": "function"
    }
  ],
  "bytecode": "0x60806040523480156200001157600080fd5b50604051620043c9380380620043c9833981810160405260a08110156200003757600080fd5b81019080805160405193929190846401000000008211156200005857600080fd5b838201915060208201858111156200006f57600080fd5b82518660018202830111640100000000821117156200008d57600080fd5b8083526020830192505050908051906020019080838360005b83811015620000c3578082015181840152602081019050620000a6565b50505050905090810190601f168015620000f15780820380516001836020036101000a031916815260200191505b50604052602001805160405193929190846401000000008211156200011557600080fd5b838201915060208201858111156200012c57600080fd5b82518660018202830111640100000000821117156200014a57600080fd5b8083526020830192505050908051906020019080838360005b838110156200018057808201518184015260208101905062000163565b50505050905090810190601f168015620001ae5780820380516001836020036101000a031916815260200191505b506040526020018051906020019092919080519060200190929190805190602001909291905050508484620001f06301ffc9a760e01b620002f860201b60201c565b81600790805190602001906200020892919062000597565b5080600890805190602001906200022192919062000597565b506200023a6380ac58cd60e01b620002f860201b60201c565b62000252635b5e139f60e01b620002f860201b60201c565b6200026a63780e9d6360e01b620002f860201b60201c565b50506200029e7f9f2df0fed2c77648de5860a4cc508cd0818c85b8b8a1ab4ceeef8d981c8956a6826200040160201b60201c565b826010819055508160118190555080600d60006101000a81548173ffffffffffffffffffffffffffffffffffffffff021916908373ffffffffffffffffffffffffffffffffffffffff16021790555050505050506200063d565b63ffffffff60e01b817bffffffffffffffffffffffffffffffffffffffffffffffffffffffff1916141562000395576040517f08c379a000000000000000000000000000000000000000000000000000000000815260040180806020018281038252601c8152602001807f4552433136353a20696e76616c696420696e746572666163652069640000000081525060200191505060405180910390fd5b6001806000837bffffffffffffffffffffffffffffffffffffffffffffffffffffffff19167bffffffffffffffffffffffffffffffffffffffffffffffffffffffff1916815260200190815260200160002060006101000a81548160ff02191690831515021790555050565b6200041382826200041760201b60201c565b5050565b6200044581600080858152602001908152602001600020600001620004ba60201b6200242f1790919060201c565b15620004b6576200045b620004f260201b60201c565b73ffffffffffffffffffffffffffffffffffffffff168173ffffffffffffffffffffffffffffffffffffffff16837f2f8788117e7eff1d82e926ec794901d17c78024a50270940304540a733656f0d60405160405180910390a45b5050565b6000620004ea836000018373ffffffffffffffffffffffffffffffffffffffff1660001b620004fa60201b60201c565b905092915050565b600033905090565b60006200050e83836200057460201b60201c565b620005695782600001829080600181540180825580915050600190039060005260206000200160009091909190915055826000018054905083600101600084815260200190815260200160002081905550600190506200056e565b600090505b92915050565b600080836001016000848152602001908152602001600020541415905092915050565b828054600181600116156101000203166002900490600052602060002090601f016020900481019282601f10620005da57805160ff19168380011785556200060b565b828001600101855582156200060b579182015b828111156200060a578251825591602001919060010190620005ed565b5b5090506200061a91906200061e565b5090565b5b80821115620006395760008160009055506001016200061f565b5090565b613d7c806200064d6000396000f3fe608060405234801561001057600080fd5b50600436106102115760003560e01c806364d7f44f11610125578063a22cb465116100ad578063c87b56dd1161007c578063c87b56dd14610cd5578063ca15c87314610d7c578063d539139314610dbe578063d547741f14610ddc578063e985e9c514610e2a57610211565b8063a22cb46514610a99578063b632c9e414610ae9578063b88d4fde14610b82578063c83b459014610c8757610211565b806387bb7ae0116100f457806387bb7ae0146109145780639010d07c1461093257806391d148541461099457806395d89b41146109f8578063a217fddf14610a7b57610211565b806364d7f44f1461079d5780636afadefb146107f55780636c0360eb1461083957806370a08231146108bc57610211565b806324c14160116101a857806336568abe1161017757806336568abe1461060557806342842e0e146106535780634f6ccce7146106c1578063569e35db146107035780636352211e1461074557610211565b806324c14160146104a45780632f2ff15d146104f65780632f745c591461054457806335fe12d8146105a657610211565b80630b705578116101e45780630b705578146103a257806318160ddd146103d657806323b872dd146103f4578063248a9ca31461046257610211565b806301ffc9a71461021657806306fdde0314610279578063081812fc146102fc578063095ea7b314610354575b600080fd5b6102616004803603602081101561022c57600080fd5b8101908080357bffffffffffffffffffffffffffffffffffffffffffffffffffffffff19169060200190929190505050610ea4565b60405180821515815260200191505060405180910390f35b610281610f0c565b6040518080602001828103825283818151815260200191508051906020019080838360005b838110156102c15780820151818401526020810190506102a6565b50505050905090810190601f1680156102ee5780820380516001836020036101000a031916815260200191505b509250505060405180910390f35b6103286004803603602081101561031257600080fd5b8101908080359060200190929190505050610fae565b604051808273ffffffffffffffffffffffffffffffffffffffff16815260200191505060405180910390f35b6103a06004803603604081101561036a57600080fd5b81019080803573ffffffffffffffffffffffffffffffffffffffff16906020019092919080359060200190929190505050611049565b005b6103aa61118d565b604051808273ffffffffffffffffffffffffffffffffffffffff16815260200191505060405180910390f35b6103de6111b7565b6040518082815260200191505060405180910390f35b6104606004803603606081101561040a57600080fd5b81019080803573ffffffffffffffffffffffffffffffffffffffff169060200190929190803573ffffffffffffffffffffffffffffffffffffffff169060200190929190803590602001909291905050506111c8565b005b61048e6004803603602081101561047857600080fd5b810190808035906020019092919050505061123e565b6040518082815260200191505060405180910390f35b6104d0600480360360208110156104ba57600080fd5b810190808035906020019092919050505061125d565b604051808481526020018381526020018215158152602001935050505060405180910390f35b6105426004803603604081101561050c57600080fd5b8101908080359060200190929190803573ffffffffffffffffffffffffffffffffffffffff1690602001909291905050506112c1565b005b6105906004803603604081101561055a57600080fd5b81019080803573ffffffffffffffffffffffffffffffffffffffff1690602001909291908035906020019092919050505061134a565b6040518082815260200191505060405180910390f35b6105ae6113a5565b6040518080602001828103825283818151815260200191508051906020019060200280838360005b838110156105f15780820151818401526020810190506105d6565b505050509050019250505060405180910390f35b6106516004803603604081101561061b57600080fd5b8101908080359060200190929190803573ffffffffffffffffffffffffffffffffffffffff1690602001909291905050506113fd565b005b6106bf6004803603606081101561066957600080fd5b81019080803573ffffffffffffffffffffffffffffffffffffffff169060200190929190803573ffffffffffffffffffffffffffffffffffffffff16906020019092919080359060200190929190505050611496565b005b6106ed600480360360208110156106d757600080fd5b81019080803590602001909291905050506114b6565b6040518082815260200191505060405180910390f35b61072f6004803603602081101561071957600080fd5b81019080803590602001909291905050506114d9565b6040518082815260200191505060405180910390f35b6107716004803603602081101561075b57600080fd5b81019080803590602001909291905050506114f9565b604051808273ffffffffffffffffffffffffffffffffffffffff16815260200191505060405180910390f35b6107f3600480360360608110156107b357600080fd5b810190808035906020019092919080359060200190929190803573ffffffffffffffffffffffffffffffffffffffff169060200190929190505050611530565b005b6108376004803603602081101561080b57600080fd5b81019080803573ffffffffffffffffffffffffffffffffffffffff1690602001909291905050506116ca565b005b610841611879565b6040518080602001828103825283818151815260200191508051906020019080838360005b83811015610881578082015181840152602081019050610866565b50505050905090810190601f1680156108ae5780820380516001836020036101000a031916815260200191505b509250505060405180910390f35b6108fe600480360360208110156108d257600080fd5b81019080803573ffffffffffffffffffffffffffffffffffffffff16906020019092919050505061191b565b6040518082815260200191505060405180910390f35b61091c6119f0565b6040518082815260200191505060405180910390f35b6109686004803603604081101561094857600080fd5b8101908080359060200190929190803590602001909291905050506119fa565b604051808273ffffffffffffffffffffffffffffffffffffffff16815260200191505060405180910390f35b6109e0600480360360408110156109aa57600080fd5b8101908080359060200190929190803573ffffffffffffffffffffffffffffffffffffffff169060200190929190505050611a2b565b60405180821515815260200191505060405180910390f35b610a00611a5c565b6040518080602001828103825283818151815260200191508051906020019080838360005b83811015610a40578082015181840152602081019050610a25565b50505050905090810190601f168015610a6d5780820380516001836020036101000a031916815260200191505b509250505060405180910390f35b610a83611afe565b6040518082815260200191505060405180910390f35b610ae760048036036040811015610aaf57600080fd5b81019080803573ffffffffffffffffffffffffffffffffffffffff169060200190929190803515159060200190929190505050611b05565b005b610b2b60048036036020811015610aff57600080fd5b81019080803573ffffffffffffffffffffffffffffffffffffffff169060200190929190505050611cbb565b6040518080602001828103825283818151815260200191508051906020019060200280838360005b83811015610b6e578082015181840152602081019050610b53565b505050509050019250505060405180910390f35b610c8560048036036080811015610b9857600080fd5b81019080803573ffffffffffffffffffffffffffffffffffffffff169060200190929190803573ffffffffffffffffffffffffffffffffffffffff1690602001909291908035906020019092919080359060200190640100000000811115610bff57600080fd5b820183602082011115610c1157600080fd5b80359060200191846001830284011164010000000083111715610c3357600080fd5b91908080601f016020809104026020016040519081016040528093929190818152602001838380828437600081840152601f19601f820116905080830192505050505050509192919290505050611d52565b005b610cd360048036036040811015610c9d57600080fd5b81019080803573ffffffffffffffffffffffffffffffffffffffff16906020019092919080359060200190929190505050611dca565b005b610d0160048036036020811015610ceb57600080fd5b8101908080359060200190929190505050611ff7565b6040518080602001828103825283818151815260200191508051906020019080838360005b83811015610d41578082015181840152602081019050610d26565b50505050905090810190601f168015610d6e5780820380516001836020036101000a031916815260200191505b509250505060405180910390f35b610da860048036036020811015610d9257600080fd5b81019080803590602001909291905050506122c8565b6040518082815260200191505060405180910390f35b610dc66122ee565b6040518082815260200191505060405180910390f35b610e2860048036036040811015610df257600080fd5b8101908080359060200190929190803573ffffffffffffffffffffffffffffffffffffffff169060200190929190505050612312565b005b610e8c60048036036040811015610e4057600080fd5b81019080803573ffffffffffffffffffffffffffffffffffffffff169060200190929190803573ffffffffffffffffffffffffffffffffffffffff16906020019092919050505061239b565b60405180821515815260200191505060405180910390f35b600060016000837bffffffffffffffffffffffffffffffffffffffffffffffffffffffff19167bffffffffffffffffffffffffffffffffffffffffffffffffffffffff1916815260200190815260200160002060009054906101000a900460ff169050919050565b606060078054600181600116156101000203166002900480601f016020809104026020016040519081016040528092919081815260200182805460018160011615610100020316600290048015610fa45780601f10610f7957610100808354040283529160200191610fa4565b820191906000526020600020905b815481529060010190602001808311610f8757829003601f168201915b5050505050905090565b6000610fb98261245f565b61100e576040517f08c379a000000000000000000000000000000000000000000000000000000000815260040180806020018281038252602c815260200180613bff602c913960400191505060405180910390fd5b6005600083815260200190815260200160002060009054906101000a900473ffffffffffffffffffffffffffffffffffffffff169050919050565b6000611054826114f9565b90508073ffffffffffffffffffffffffffffffffffffffff168373ffffffffffffffffffffffffffffffffffffffff1614156110db576040517f08c379a0000000000000000000000000000000000000000000000000000000008152600401808060200182810382526021815260200180613c836021913960400191505060405180910390fd5b8073ffffffffffffffffffffffffffffffffffffffff166110fa61247c565b73ffffffffffffffffffffffffffffffffffffffff16148061112957506111288161112361247c565b61239b565b5b61117e576040517f08c379a0000000000000000000000000000000000000000000000000000000008152600401808060200182810382526038815260200180613b526038913960400191505060405180910390fd5b6111888383612484565b505050565b6000600d60009054906101000a900473ffffffffffffffffffffffffffffffffffffffff16905090565b60006111c3600361253d565b905090565b6111d96111d361247c565b82612552565b61122e576040517f08c379a0000000000000000000000000000000000000000000000000000000008152600401808060200182810382526031815260200180613ca46031913960400191505060405180910390fd5b611239838383612646565b505050565b6000806000838152602001908152602001600020600201549050919050565b6000806000601260008581526020019081526020016000206000015460126000868152602001908152602001600020600101546012600087815260200190815260200160002060020160009054906101000a900460ff169250925092509193909250565b6112e7600080848152602001908152602001600020600201546112e261247c565b611a2b565b61133c576040517f08c379a000000000000000000000000000000000000000000000000000000000815260040180806020018281038252602f815260200180613a4b602f913960400191505060405180910390fd5b6113468282612889565b5050565b600061139d82600260008673ffffffffffffffffffffffffffffffffffffffff1673ffffffffffffffffffffffffffffffffffffffff16815260200190815260200160002061291c90919063ffffffff16565b905092915050565b6060600f8054806020026020016040519081016040528092919081815260200182805480156113f357602002820191906000526020600020905b8154815260200190600101908083116113df575b5050505050905090565b61140561247c565b73ffffffffffffffffffffffffffffffffffffffff168173ffffffffffffffffffffffffffffffffffffffff1614611488576040517f08c379a000000000000000000000000000000000000000000000000000000000815260040180806020018281038252602f815260200180613cf6602f913960400191505060405180910390fd5b6114928282612936565b5050565b6114b183838360405180602001604052806000815250611d52565b505050565b6000806114cd8360036129c990919063ffffffff16565b50905080915050919050565b600060126000838152602001908152602001600020600101549050919050565b600061152982604051806060016040528060298152602001613bb46029913960036129f59092919063ffffffff16565b9050919050565b600060126000858152602001908152602001600020600001549050826064606e83028161155957fe5b048201116115b2576040517f08c379a0000000000000000000000000000000000000000000000000000000008152600401808060200182810382526022815260200180613d256022913960400191505060405180910390fd5b6115e37f9f2df0fed2c77648de5860a4cc508cd0818c85b8b8a1ab4ceeef8d981c8956a66115de61247c565b611a2b565b15611639576040517f08c379a0000000000000000000000000000000000000000000000000000000008152600401808060200182810382526021815260200180613cd56021913960400191505060405180910390fd5b82601260008681526020019081526020016000206001018190555060016012600086815260200190815260200160002060020160006101000a81548160ff02191690831515021790555061168c84612a14565b6116ba57600f8490806001815401808255809150506001900390600052602060002001600090919091909150555b6116c48285611049565b50505050565b6116d4600c612a6a565b60006116e0600c612a80565b90506116eb816114f9565b73ffffffffffffffffffffffffffffffffffffffff163373ffffffffffffffffffffffffffffffffffffffff161461178b576040517f08c379a000000000000000000000000000000000000000000000000000000000815260040180806020018281038252601d8152602001807f4f6e6c7920696e697469616c20707572636861736520616c6c6f77656400000081525060200191505060405180910390fd5b61179e611797826114f9565b83836111c8565b6117a782612a8e565b61180f57600e829080600181540180825580915050600190039060005260206000200160009091909190916101000a81548173ffffffffffffffffffffffffffffffffffffffff021916908373ffffffffffffffffffffffffffffffffffffffff1602179055505b601360008373ffffffffffffffffffffffffffffffffffffffff1673ffffffffffffffffffffffffffffffffffffffff1681526020019081526020016000208190806001815401808255809150506001900390600052602060002001600090919091909150555050565b6060600a8054600181600116156101000203166002900480601f0160208091040260200160405190810160405280929190818152602001828054600181600116156101000203166002900480156119115780601f106118e657610100808354040283529160200191611911565b820191906000526020600020905b8154815290600101906020018083116118f457829003601f168201915b5050505050905090565b60008073ffffffffffffffffffffffffffffffffffffffff168273ffffffffffffffffffffffffffffffffffffffff1614156119a2576040517f08c379a000000000000000000000000000000000000000000000000000000000815260040180806020018281038252602a815260200180613b8a602a913960400191505060405180910390fd5b6119e9600260008473ffffffffffffffffffffffffffffffffffffffff1673ffffffffffffffffffffffffffffffffffffffff168152602001908152602001600020612b30565b9050919050565b6000601054905090565b6000611a2382600080868152602001908152602001600020600001612b4590919063ffffffff16565b905092915050565b6000611a5482600080868152602001908152602001600020600001612b5f90919063ffffffff16565b905092915050565b606060088054600181600116156101000203166002900480601f016020809104026020016040519081016040528092919081815260200182805460018160011615610100020316600290048015611af45780601f10611ac957610100808354040283529160200191611af4565b820191906000526020600020905b815481529060010190602001808311611ad757829003601f168201915b5050505050905090565b6000801b81565b611b0d61247c565b73ffffffffffffffffffffffffffffffffffffffff168273ffffffffffffffffffffffffffffffffffffffff161415611bae576040517f08c379a00000000000000000000000000000000000000000000000000000000081526004018080602001828103825260198152602001807f4552433732313a20617070726f766520746f2063616c6c65720000000000000081525060200191505060405180910390fd5b8060066000611bbb61247c565b73ffffffffffffffffffffffffffffffffffffffff1673ffffffffffffffffffffffffffffffffffffffff16815260200190815260200160002060008473ffffffffffffffffffffffffffffffffffffffff1673ffffffffffffffffffffffffffffffffffffffff16815260200190815260200160002060006101000a81548160ff0219169083151502179055508173ffffffffffffffffffffffffffffffffffffffff16611c6861247c565b73ffffffffffffffffffffffffffffffffffffffff167f17307eab39ab6107e8899845ad3d59bd9653f200f220920489ca2b5937696c318360405180821515815260200191505060405180910390a35050565b6060601360008373ffffffffffffffffffffffffffffffffffffffff1673ffffffffffffffffffffffffffffffffffffffff168152602001908152602001600020805480602002602001604051908101604052809291908181526020018280548015611d4657602002820191906000526020600020905b815481526020019060010190808311611d32575b50505050509050919050565b611d63611d5d61247c565b83612552565b611db8576040517f08c379a0000000000000000000000000000000000000000000000000000000008152600401808060200182810382526031815260200180613ca46031913960400191505060405180910390fd5b611dc484848484612b8f565b50505050565b80600060126000838152602001908152602001600020600001549050600060126000848152602001908152602001600020600101549050806064606e840281611e0f57fe5b04830111611e68576040517f08c379a0000000000000000000000000000000000000000000000000000000008152600401808060200182810382526022815260200180613d256022913960400191505060405180910390fd5b6000611e73856114f9565b9050600060126000878152602001908152602001600020600101549050611e9b8288886111c8565b611ea487612a8e565b611f0c57600e879080600181540180825580915050600190039060005260206000200160009091909190916101000a81548173ffffffffffffffffffffffffffffffffffffffff021916908373ffffffffffffffffffffffffffffffffffffffff1602179055505b601360008873ffffffffffffffffffffffffffffffffffffffff1673ffffffffffffffffffffffffffffffffffffffff168152602001908152602001600020869080600181540180825580915050600190039060005260206000200160009091909190915055611f7c8287612c01565b611f8586612df0565b6040518060600160405280828152602001600081526020016000151581525060126000888152602001908152602001600020600082015181600001556020820151816001015560408201518160020160006101000a81548160ff02191690831515021790555090505050505050505050565b60606120028261245f565b612057576040517f08c379a000000000000000000000000000000000000000000000000000000000815260040180806020018281038252602f815260200180613c54602f913960400191505060405180910390fd5b6060600960008481526020019081526020016000208054600181600116156101000203166002900480601f0160208091040260200160405190810160405280929190818152602001828054600181600116156101000203166002900480156121005780601f106120d557610100808354040283529160200191612100565b820191906000526020600020905b8154815290600101906020018083116120e357829003601f168201915b505050505090506060612111611879565b90506000815114156121275781925050506122c3565b6000825111156121f85780826040516020018083805190602001908083835b602083106121695780518252602082019150602081019050602083039250612146565b6001836020036101000a03801982511681845116808217855250505050505090500182805190602001908083835b602083106121ba5780518252602082019150602081019050602083039250612197565b6001836020036101000a03801982511681845116808217855250505050505090500192505050604051602081830303815290604052925050506122c3565b8061220285612ead565b6040516020018083805190602001908083835b602083106122385780518252602082019150602081019050602083039250612215565b6001836020036101000a03801982511681845116808217855250505050505090500182805190602001908083835b602083106122895780518252602082019150602081019050602083039250612266565b6001836020036101000a03801982511681845116808217855250505050505090500192505050604051602081830303815290604052925050505b919050565b60006122e7600080848152602001908152602001600020600001612ff4565b9050919050565b7f9f2df0fed2c77648de5860a4cc508cd0818c85b8b8a1ab4ceeef8d981c8956a681565b6123386000808481526020019081526020016000206002015461233361247c565b611a2b565b61238d576040517f08c379a0000000000000000000000000000000000000000000000000000000008152600401808060200182810382526030815260200180613b226030913960400191505060405180910390fd5b6123978282612936565b5050565b6000600660008473ffffffffffffffffffffffffffffffffffffffff1673ffffffffffffffffffffffffffffffffffffffff16815260200190815260200160002060008373ffffffffffffffffffffffffffffffffffffffff1673ffffffffffffffffffffffffffffffffffffffff16815260200190815260200160002060009054906101000a900460ff16905092915050565b6000612457836000018373ffffffffffffffffffffffffffffffffffffffff1660001b613009565b905092915050565b600061247582600361307990919063ffffffff16565b9050919050565b600033905090565b816005600083815260200190815260200160002060006101000a81548173ffffffffffffffffffffffffffffffffffffffff021916908373ffffffffffffffffffffffffffffffffffffffff160217905550808273ffffffffffffffffffffffffffffffffffffffff166124f7836114f9565b73ffffffffffffffffffffffffffffffffffffffff167f8c5be1e5ebec7d5bd14f71427d1e84f3dd0314c0f7b2291e5b200ac8c7c3b92560405160405180910390a45050565b600061254b82600001613093565b9050919050565b600061255d8261245f565b6125b2576040517f08c379a000000000000000000000000000000000000000000000000000000000815260040180806020018281038252602c815260200180613af6602c913960400191505060405180910390fd5b60006125bd836114f9565b90508073ffffffffffffffffffffffffffffffffffffffff168473ffffffffffffffffffffffffffffffffffffffff16148061262c57508373ffffffffffffffffffffffffffffffffffffffff1661261484610fae565b73ffffffffffffffffffffffffffffffffffffffff16145b8061263d575061263c818561239b565b5b91505092915050565b8273ffffffffffffffffffffffffffffffffffffffff16612666826114f9565b73ffffffffffffffffffffffffffffffffffffffff16146126d2576040517f08c379a0000000000000000000000000000000000000000000000000000000008152600401808060200182810382526029815260200180613c2b6029913960400191505060405180910390fd5b600073ffffffffffffffffffffffffffffffffffffffff168273ffffffffffffffffffffffffffffffffffffffff161415612758576040517f08c379a0000000000000000000000000000000000000000000000000000000008152600401808060200182810382526024815260200180613aac6024913960400191505060405180910390fd5b6127638383836130a4565b61276e600082612484565b6127bf81600260008673ffffffffffffffffffffffffffffffffffffffff1673ffffffffffffffffffffffffffffffffffffffff1681526020019081526020016000206130a990919063ffffffff16565b5061281181600260008573ffffffffffffffffffffffffffffffffffffffff1673ffffffffffffffffffffffffffffffffffffffff1681526020019081526020016000206130c390919063ffffffff16565b50612828818360036130dd9092919063ffffffff16565b50808273ffffffffffffffffffffffffffffffffffffffff168473ffffffffffffffffffffffffffffffffffffffff167fddf252ad1be2c89b69c2b068fc378daa952ba7f163c4a11628f55a4df523b3ef60405160405180910390a4505050565b6128b08160008085815260200190815260200160002060000161242f90919063ffffffff16565b15612918576128bd61247c565b73ffffffffffffffffffffffffffffffffffffffff168173ffffffffffffffffffffffffffffffffffffffff16837f2f8788117e7eff1d82e926ec794901d17c78024a50270940304540a733656f0d60405160405180910390a45b5050565b600061292b8360000183613112565b60001c905092915050565b61295d8160008085815260200190815260200160002060000161319590919063ffffffff16565b156129c55761296a61247c565b73ffffffffffffffffffffffffffffffffffffffff168173ffffffffffffffffffffffffffffffffffffffff16837ff6391f5c32d9c69d2a47ea670b442974b53935d1edc7fd64eb21e047a839171b60405160405180910390a45b5050565b6000806000806129dc86600001866131c5565b915091508160001c8160001c9350935050509250929050565b6000612a08846000018460001b8461325e565b60001c90509392505050565b600080600090505b600f80549050811015612a5f5782600f8281548110612a3757fe5b90600052602060002001541415612a52576001915050612a65565b8080600101915050612a1c565b50600090505b919050565b6001816000016000828254019250508190555050565b600081600001549050919050565b600080600090505b600e80549050811015612b25578273ffffffffffffffffffffffffffffffffffffffff16600e8281548110612ac757fe5b9060005260206000200160009054906101000a900473ffffffffffffffffffffffffffffffffffffffff1673ffffffffffffffffffffffffffffffffffffffff161415612b18576001915050612b2b565b8080600101915050612a96565b50600090505b919050565b6000612b3e82600001613354565b9050919050565b6000612b548360000183613112565b60001c905092915050565b6000612b87836000018373ffffffffffffffffffffffffffffffffffffffff1660001b613365565b905092915050565b612b9a848484612646565b612ba684848484613388565b612bfb576040517f08c379a0000000000000000000000000000000000000000000000000000000008152600401808060200182810382526032815260200180613a7a6032913960400191505060405180910390fd5b50505050565b6000601360008473ffffffffffffffffffffffffffffffffffffffff1673ffffffffffffffffffffffffffffffffffffffff16815260200190815260200160002080549050905060005b81811015612dea5782601360008673ffffffffffffffffffffffffffffffffffffffff1673ffffffffffffffffffffffffffffffffffffffff1681526020019081526020016000208281548110612c9e57fe5b90600052602060002001541415612ddd5760006001820190505b82811015612d7d57601360008673ffffffffffffffffffffffffffffffffffffffff1673ffffffffffffffffffffffffffffffffffffffff1681526020019081526020016000208181548110612d0a57fe5b9060005260206000200154601360008773ffffffffffffffffffffffffffffffffffffffff1673ffffffffffffffffffffffffffffffffffffffff1681526020019081526020016000206001830381548110612d6257fe5b90600052602060002001819055508080600101915050612cb8565b50601360008573ffffffffffffffffffffffffffffffffffffffff1673ffffffffffffffffffffffffffffffffffffffff168152602001908152602001600020805480612dc657fe5b600190038181906000526020600020016000905590555b8080600101915050612c4b565b50505050565b6000600f80549050905060005b81811015612ea85782600f8281548110612e1357fe5b90600052602060002001541415612e9b5760006001820190505b82811015612e7857600f8181548110612e4257fe5b9060005260206000200154600f6001830381548110612e5d57fe5b90600052602060002001819055508080600101915050612e2d565b50600f805480612e8457fe5b600190038181906000526020600020016000905590555b8080600101915050612dfd565b505050565b60606000821415612ef5576040518060400160405280600181526020017f30000000000000000000000000000000000000000000000000000000000000008152509050612fef565b600082905060005b60008214612f1f578080600101915050600a8281612f1757fe5b049150612efd565b60608167ffffffffffffffff81118015612f3857600080fd5b506040519080825280601f01601f191660200182016040528015612f6b5781602001600182028036833780820191505090505b50905060006001830390508593505b60008414612fe757600a8481612f8c57fe5b0660300160f81b82828060019003935081518110612fa657fe5b60200101907effffffffffffffffffffffffffffffffffffffffffffffffffffffffffffff1916908160001a905350600a8481612fdf57fe5b049350612f7a565b819450505050505b919050565b600061300282600001613354565b9050919050565b60006130158383613365565b61306e578260000182908060018154018082558091505060019003906000526020600020016000909190919091505582600001805490508360010160008481526020019081526020016000208190555060019050613073565b600090505b92915050565b600061308b836000018360001b6135a1565b905092915050565b600081600001805490509050919050565b505050565b60006130bb836000018360001b6135c4565b905092915050565b60006130d5836000018360001b613009565b905092915050565b6000613109846000018460001b8473ffffffffffffffffffffffffffffffffffffffff1660001b6136ac565b90509392505050565b600081836000018054905011613173576040517f08c379a0000000000000000000000000000000000000000000000000000000008152600401808060200182810382526022815260200180613a296022913960400191505060405180910390fd5b82600001828154811061318257fe5b9060005260206000200154905092915050565b60006131bd836000018373ffffffffffffffffffffffffffffffffffffffff1660001b6135c4565b905092915050565b60008082846000018054905011613227576040517f08c379a0000000000000000000000000000000000000000000000000000000008152600401808060200182810382526022815260200180613bdd6022913960400191505060405180910390fd5b600084600001848154811061323857fe5b906000526020600020906002020190508060000154816001015492509250509250929050565b60008084600101600085815260200190815260200160002054905060008114158390613325576040517f08c379a00000000000000000000000000000000000000000000000000000000081526004018080602001828103825283818151815260200191508051906020019080838360005b838110156132ea5780820151818401526020810190506132cf565b50505050905090810190601f1680156133175780820380516001836020036101000a031916815260200191505b509250505060405180910390fd5b5084600001600182038154811061333857fe5b9060005260206000209060020201600101549150509392505050565b600081600001805490509050919050565b600080836001016000848152602001908152602001600020541415905092915050565b60006133a98473ffffffffffffffffffffffffffffffffffffffff16613788565b6133b65760019050613599565b606061352063150b7a0260e01b6133cb61247c565b888787604051602401808573ffffffffffffffffffffffffffffffffffffffff1681526020018473ffffffffffffffffffffffffffffffffffffffff16815260200183815260200180602001828103825283818151815260200191508051906020019080838360005b8381101561344f578082015181840152602081019050613434565b50505050905090810190601f16801561347c5780820380516001836020036101000a031916815260200191505b5095505050505050604051602081830303815290604052907bffffffffffffffffffffffffffffffffffffffffffffffffffffffff19166020820180517bffffffffffffffffffffffffffffffffffffffffffffffffffffffff8381831617835250505050604051806060016040528060328152602001613a7a603291398773ffffffffffffffffffffffffffffffffffffffff1661379b9092919063ffffffff16565b9050600081806020019051602081101561353957600080fd5b8101908080519060200190929190505050905063150b7a0260e01b7bffffffffffffffffffffffffffffffffffffffffffffffffffffffff1916817bffffffffffffffffffffffffffffffffffffffffffffffffffffffff191614925050505b949350505050565b600080836001016000848152602001908152602001600020541415905092915050565b600080836001016000848152602001908152602001600020549050600081146136a0576000600182039050600060018660000180549050039050600086600001828154811061360f57fe5b906000526020600020015490508087600001848154811061362c57fe5b906000526020600020018190555060018301876001016000838152602001908152602001600020819055508660000180548061366457fe5b600190038181906000526020600020016000905590558660010160008781526020019081526020016000206000905560019450505050506136a6565b60009150505b92915050565b600080846001016000858152602001908152602001600020549050600081141561375357846000016040518060400160405280868152602001858152509080600181540180825580915050600190039060005260206000209060020201600090919091909150600082015181600001556020820151816001015550508460000180549050856001016000868152602001908152602001600020819055506001915050613781565b8285600001600183038154811061376657fe5b90600052602060002090600202016001018190555060009150505b9392505050565b600080823b905060008111915050919050565b60606137aa84846000856137b3565b90509392505050565b60608247101561380e576040517f08c379a0000000000000000000000000000000000000000000000000000000008152600401808060200182810382526026815260200180613ad06026913960400191505060405180910390fd5b61381785613788565b613889576040517f08c379a000000000000000000000000000000000000000000000000000000000815260040180806020018281038252601d8152602001807f416464726573733a2063616c6c20746f206e6f6e2d636f6e747261637400000081525060200191505060405180910390fd5b600060608673ffffffffffffffffffffffffffffffffffffffff1685876040518082805190602001908083835b602083106138d957805182526020820191506020810190506020830392506138b6565b6001836020036101000a03801982511681845116808217855250505050505090500191505060006040518083038185875af1925050503d806000811461393b576040519150601f19603f3d011682016040523d82523d6000602084013e613940565b606091505b509150915061395082828661395c565b92505050949350505050565b6060831561396c57829050613a21565b60008351111561397f5782518084602001fd5b816040517f08c379a00000000000000000000000000000000000000000000000000000000081526004018080602001828103825283818151815260200191508051906020019080838360005b838110156139e65780820151818401526020810190506139cb565b50505050905090810190601f168015613a135780820380516001836020036101000a031916815260200191505b509250505060405180910390fd5b939250505056fe456e756d657261626c655365743a20696e646578206f7574206f6620626f756e6473416363657373436f6e74726f6c3a2073656e646572206d75737420626520616e2061646d696e20746f206772616e744552433732313a207472616e7366657220746f206e6f6e20455243373231526563656976657220696d706c656d656e7465724552433732313a207472616e7366657220746f20746865207a65726f2061646472657373416464726573733a20696e73756666696369656e742062616c616e636520666f722063616c6c4552433732313a206f70657261746f7220717565727920666f72206e6f6e6578697374656e7420746f6b656e416363657373436f6e74726f6c3a2073656e646572206d75737420626520616e2061646d696e20746f207265766f6b654552433732313a20617070726f76652063616c6c6572206973206e6f74206f776e6572206e6f7220617070726f76656420666f7220616c6c4552433732313a2062616c616e636520717565727920666f7220746865207a65726f20616464726573734552433732313a206f776e657220717565727920666f72206e6f6e6578697374656e7420746f6b656e456e756d657261626c654d61703a20696e646578206f7574206f6620626f756e64734552433732313a20617070726f76656420717565727920666f72206e6f6e6578697374656e7420746f6b656e4552433732313a207472616e73666572206f6620746f6b656e2074686174206973206e6f74206f776e4552433732314d657461646174613a2055524920717565727920666f72206e6f6e6578697374656e7420746f6b656e4552433732313a20617070726f76616c20746f2063757272656e74206f776e65724552433732313a207472616e736665722063616c6c6572206973206e6f74206f776e6572206e6f7220617070726f7665646f6e6c7920616c6c6f77656420666f72207365636f6e64617279206d61726b6574416363657373436f6e74726f6c3a2063616e206f6e6c792072656e6f756e636520726f6c657320666f722073656c6652652d73656c6c696e67207072696365206973206d6f7265207468616e2031313025a2646970667358221220178e2af1bfb25d6ac5de073b271d3c113cef7ba958b3fd635e46a6d29569631b64736f6c634300060c0033",
  "immutableReferences": {},
  "source": "// SPDX-License-Identifier: MIT\n\npragma solidity ^0.6.0;\n\nimport \"@openzeppelin/contracts/utils/Context.sol\";\nimport \"@openzeppelin/contracts/access/AccessControl.sol\";\nimport \"@openzeppelin/contracts/token/ERC721/ERC721.sol\";\nimport \"@openzeppelin/contracts/utils/Counters.sol\";\n\ncontract FestivalNFT is Context, AccessControl, ERC721 {\n    using Counters for Counters.Counter;\n    Counters.Counter private _ticketIds;\n    Counters.Counter private _saleTicketId;\n    bytes32 public constant MINTER_ROLE = keccak256(\"MINTER_ROLE\");\n    struct TicketDetails {\n        uint256 purchasePrice;\n        uint256 sellingPrice;\n        bool forSale;\n    }\n    address private _organiser;\n    address[] private customers;\n    uint256[] private ticketsForSale;\n    uint256 private _ticketPrice;\n    uint256 private _totalSupply;\n    mapping(uint256 => TicketDetails) private _ticketDetails;\n    mapping(address => uint256[]) private purchasedTickets;\n    constructor(\n        string memory festName,\n        string memory FestSymbol,\n        uint256 ticketPrice,\n        uint256 totalSupply,\n        address organiser\n    ) public ERC721(festName, FestSymbol) {\n        _setupRole(MINTER_ROLE, organiser);\n        _ticketPrice = ticketPrice;\n        _totalSupply = totalSupply;\n        _organiser = organiser;\n    }\n\n    modifier isValidTicketCount {\n        require(\n            _ticketIds.current() < _totalSupply,\n            \"Maximum ticket limit exceeded!\"\n        );\n        _;\n    }\n\n    modifier isMinterRole {\n        require(\n            hasRole(MINTER_ROLE, _msgSender()),\n            \"User must have minter role to mint\"\n        );\n        _;\n    }\n\n    modifier isValidSellAmount(uint256 ticketId) {\n        uint256 purchasePrice = _ticketDetails[ticketId].purchasePrice;\n        uint256 sellingPrice = _ticketDetails[ticketId].sellingPrice;\n\n        require(\n            purchasePrice + ((purchasePrice * 110) / 100) > sellingPrice,\n            \"Re-selling price is more than 110%\"\n        );\n        _;\n    }\n\n    function mint(address operator) internal virtual isMinterRole returns (uint256) {\n        _ticketIds.increment();\n        uint256 newTicketId = _ticketIds.current();\n        _mint(operator, newTicketId);\n        _ticketDetails[newTicketId] = TicketDetails({\n            purchasePrice: _ticketPrice,\n            sellingPrice: 0,\n            forSale: false\n        });\n\n        return newTicketId;\n    }\n\n    function transferTicket(address buyer) public {\n        _saleTicketId.increment();\n        uint256 saleTicketId = _saleTicketId.current();\n        require(\n            msg.sender == ownerOf(saleTicketId),\n            \"Only initial purchase allowed\"\n        );\n        transferFrom(ownerOf(saleTicketId), buyer, saleTicketId);\n        if (!isCustomerExist(buyer)) {\n            customers.push(buyer);\n        }\n        purchasedTickets[buyer].push(saleTicketId);\n    }\n    function secondaryTransferTicket(address buyer, uint256 saleTicketId) public isValidSellAmount(saleTicketId)\n    {\n        address seller = ownerOf(saleTicketId);\n        uint256 sellingPrice = _ticketDetails[saleTicketId].sellingPrice;\n        transferFrom(seller, buyer, saleTicketId);\n        if (!isCustomerExist(buyer)) {customers.push(buyer);}\n        purchasedTickets[buyer].push(saleTicketId);\n        removeTicketFromCustomer(seller, saleTicketId);\n        removeTicketFromSale(saleTicketId);\n        _ticketDetails[saleTicketId] = TicketDetails({\n            purchasePrice: sellingPrice,\n            sellingPrice: 0,\n            forSale: false\n        });\n    }\n    function setSaleDetails(uint256 ticketId, uint256 sellingPrice, address operator) public {\n        uint256 purchasePrice = _ticketDetails[ticketId].purchasePrice;\n        require(\n            purchasePrice + ((purchasePrice * 110) / 100) > sellingPrice,\n            \"Re-selling price is more than 110%\"\n        );\n        require(!hasRole(MINTER_ROLE, _msgSender()),\"only allowed for secondary market\");\n        _ticketDetails[ticketId].sellingPrice = sellingPrice;\n        _ticketDetails[ticketId].forSale = true;\n        if (!isSaleTicketAvailable(ticketId)) {\n            ticketsForSale.push(ticketId);\n        }\n        approve(operator, ticketId);\n    }\n    function getTicketPrice() public view returns (uint256) {\n        return _ticketPrice;\n    }\n    function getOrganiser() public view returns (address) {\n        return _organiser;\n    }    \n    function getSellingPrice(uint256 ticketId) public view returns (uint256) {\n        return _ticketDetails[ticketId].sellingPrice;\n    }\n    function getTicketsForSale() public view returns (uint256[] memory) {\n        return ticketsForSale;\n    }\n    function getTicketDetails(uint256 ticketId) public view returns (uint256 purchasePrice,uint256 sellingPrice,bool forSale)\n    {\n        return (\n            _ticketDetails[ticketId].purchasePrice,\n            _ticketDetails[ticketId].sellingPrice,\n            _ticketDetails[ticketId].forSale\n        );\n    }\n    function getTicketsOfCustomer(address customer) public view returns (uint256[] memory) {\n        return purchasedTickets[customer];\n    }\n\n    function isCustomerExist(address buyer) internal view returns (bool) {\n        for (uint256 i = 0; i < customers.length; i++) {\n            if (customers[i] == buyer) {return true;}\n        }\n        return false;\n    }\n    function isSaleTicketAvailable(uint256 ticketId) internal view returns (bool) {\n        for (uint256 i = 0; i < ticketsForSale.length; i++) {\n            if (ticketsForSale[i] == ticketId) {\n                return true;\n            }}\n        return false;\n    }\n    function removeTicketFromCustomer(address customer, uint256 ticketId) internal {\n    uint256 numOfTickets = purchasedTickets[customer].length;\n        for (uint256 i = 0; i < numOfTickets; i++) {\n            if (purchasedTickets[customer][i] == ticketId) {\n                for (uint256 j = i + 1; j < numOfTickets; j++) {\n                    purchasedTickets[customer][j - 1] = purchasedTickets[customer][j];\n                }\n                purchasedTickets[customer].pop();\n            }\n        }}\n    function removeTicketFromSale(uint256 ticketId) internal {\n        uint256 numOfTickets = ticketsForSale.length;\n        for (uint256 i = 0; i < numOfTickets; i++) {\n            if (ticketsForSale[i] == ticketId) {\n                for (uint256 j = i + 1; j < numOfTickets; j++) {\n                    ticketsForSale[j - 1] = ticketsForSale[j];\n                }\n                ticketsForSale.pop();\n            }}}}",
  "sourcePath": "/Users/sqaimes/web3/festival/contracts/FestivalNFT.sol",
  "compiler": {
    "name": "solc",
    "version": "0.6.12+commit.27d51765.Emscripten.clang"
  },
  "schemaVersion": "3.4.7",
  "updatedAt": "2022-09-17T02:36:36.597Z",
  "devdoc": {
    "kind": "dev",
    "methods": {
      "approve(address,uint256)": {
        "details": "See {IERC721-approve}."
      },
      "balanceOf(address)": {
        "details": "See {IERC721-balanceOf}."
      },
      "baseURI()": {
        "details": "Returns the base URI set via {_setBaseURI}. This will be automatically added as a prefix in {tokenURI} to each token's URI, or to the token ID if no specific URI is set for that token ID."
      },
      "getApproved(uint256)": {
        "details": "See {IERC721-getApproved}."
      },
      "getRoleAdmin(bytes32)": {
        "details": "Returns the admin role that controls `role`. See {grantRole} and {revokeRole}. To change a role's admin, use {_setRoleAdmin}."
      },
      "getRoleMember(bytes32,uint256)": {
        "details": "Returns one of the accounts that have `role`. `index` must be a value between 0 and {getRoleMemberCount}, non-inclusive. Role bearers are not sorted in any particular way, and their ordering may change at any point. WARNING: When using {getRoleMember} and {getRoleMemberCount}, make sure you perform all queries on the same block. See the following https://forum.openzeppelin.com/t/iterating-over-elements-on-enumerableset-in-openzeppelin-contracts/2296[forum post] for more information."
      },
      "getRoleMemberCount(bytes32)": {
        "details": "Returns the number of accounts that have `role`. Can be used together with {getRoleMember} to enumerate all bearers of a role."
      },
      "grantRole(bytes32,address)": {
        "details": "Grants `role` to `account`. If `account` had not been already granted `role`, emits a {RoleGranted} event. Requirements: - the caller must have ``role``'s admin role."
      },
      "hasRole(bytes32,address)": {
        "details": "Returns `true` if `account` has been granted `role`."
      },
      "isApprovedForAll(address,address)": {
        "details": "See {IERC721-isApprovedForAll}."
      },
      "name()": {
        "details": "See {IERC721Metadata-name}."
      },
      "ownerOf(uint256)": {
        "details": "See {IERC721-ownerOf}."
      },
      "renounceRole(bytes32,address)": {
        "details": "Revokes `role` from the calling account. Roles are often managed via {grantRole} and {revokeRole}: this function's purpose is to provide a mechanism for accounts to lose their privileges if they are compromised (such as when a trusted device is misplaced). If the calling account had been granted `role`, emits a {RoleRevoked} event. Requirements: - the caller must be `account`."
      },
      "revokeRole(bytes32,address)": {
        "details": "Revokes `role` from `account`. If `account` had been granted `role`, emits a {RoleRevoked} event. Requirements: - the caller must have ``role``'s admin role."
      },
      "safeTransferFrom(address,address,uint256)": {
        "details": "See {IERC721-safeTransferFrom}."
      },
      "safeTransferFrom(address,address,uint256,bytes)": {
        "details": "See {IERC721-safeTransferFrom}."
      },
      "setApprovalForAll(address,bool)": {
        "details": "See {IERC721-setApprovalForAll}."
      },
      "supportsInterface(bytes4)": {
        "details": "See {IERC165-supportsInterface}. Time complexity O(1), guaranteed to always use less than 30 000 gas."
      },
      "symbol()": {
        "details": "See {IERC721Metadata-symbol}."
      },
      "tokenByIndex(uint256)": {
        "details": "See {IERC721Enumerable-tokenByIndex}."
      },
      "tokenOfOwnerByIndex(address,uint256)": {
        "details": "See {IERC721Enumerable-tokenOfOwnerByIndex}."
      },
      "tokenURI(uint256)": {
        "details": "See {IERC721Metadata-tokenURI}."
      },
      "totalSupply()": {
        "details": "See {IERC721Enumerable-totalSupply}."
      },
      "transferFrom(address,address,uint256)": {
        "details": "See {IERC721-transferFrom}."
      }
    },
    "version": 1
  },
  "userdoc": {
    "kind": "user",
    "methods": {},
    "version": 1
  }
}