{
  "contractName": "SmartCertificate",
  "abi": [
    {
      "inputs": [],
      "stateMutability": "nonpayable",
      "type": "constructor"
    },
    {
      "anonymous": false,
      "inputs": [
        {
          "indexed": true,
          "internalType": "address",
          "name": "owner",
          "type": "address"
        },
        {
          "indexed": true,
          "internalType": "address",
          "name": "approved",
          "type": "address"
        },
        {
          "indexed": true,
          "internalType": "uint256",
          "name": "tokenId",
          "type": "uint256"
        }
      ],
      "name": "Approval",
      "type": "event"
    },
    {
      "anonymous": false,
      "inputs": [
        {
          "indexed": true,
          "internalType": "address",
          "name": "owner",
          "type": "address"
        },
        {
          "indexed": true,
          "internalType": "address",
          "name": "operator",
          "type": "address"
        },
        {
          "indexed": false,
          "internalType": "bool",
          "name": "approved",
          "type": "bool"
        }
      ],
      "name": "ApprovalForAll",
      "type": "event"
    },
    {
      "anonymous": false,
      "inputs": [
        {
          "indexed": true,
          "internalType": "address",
          "name": "previousOwner",
          "type": "address"
        },
        {
          "indexed": true,
          "internalType": "address",
          "name": "newOwner",
          "type": "address"
        }
      ],
      "name": "OwnershipTransferred",
      "type": "event"
    },
    {
      "anonymous": false,
      "inputs": [
        {
          "indexed": true,
          "internalType": "address",
          "name": "from",
          "type": "address"
        },
        {
          "indexed": true,
          "internalType": "address",
          "name": "to",
          "type": "address"
        },
        {
          "indexed": true,
          "internalType": "uint256",
          "name": "tokenId",
          "type": "uint256"
        }
      ],
      "name": "Transfer",
      "type": "event"
    },
    {
      "inputs": [
        {
          "internalType": "address",
          "name": "to",
          "type": "address"
        },
        {
          "internalType": "uint256",
          "name": "tokenId",
          "type": "uint256"
        }
      ],
      "name": "approve",
      "outputs": [],
      "stateMutability": "nonpayable",
      "type": "function"
    },
    {
      "inputs": [
        {
          "internalType": "address",
          "name": "owner",
          "type": "address"
        }
      ],
      "name": "balanceOf",
      "outputs": [
        {
          "internalType": "uint256",
          "name": "",
          "type": "uint256"
        }
      ],
      "stateMutability": "view",
      "type": "function",
      "constant": true
    },
    {
      "inputs": [
        {
          "internalType": "uint256",
          "name": "tokenId",
          "type": "uint256"
        }
      ],
      "name": "getApproved",
      "outputs": [
        {
          "internalType": "address",
          "name": "",
          "type": "address"
        }
      ],
      "stateMutability": "view",
      "type": "function",
      "constant": true
    },
    {
      "inputs": [
        {
          "internalType": "address",
          "name": "owner",
          "type": "address"
        },
        {
          "internalType": "address",
          "name": "operator",
          "type": "address"
        }
      ],
      "name": "isApprovedForAll",
      "outputs": [
        {
          "internalType": "bool",
          "name": "",
          "type": "bool"
        }
      ],
      "stateMutability": "view",
      "type": "function",
      "constant": true
    },
    {
      "inputs": [],
      "name": "name",
      "outputs": [
        {
          "internalType": "string",
          "name": "",
          "type": "string"
        }
      ],
      "stateMutability": "view",
      "type": "function",
      "constant": true
    },
    {
      "inputs": [],
      "name": "owner",
      "outputs": [
        {
          "internalType": "address",
          "name": "",
          "type": "address"
        }
      ],
      "stateMutability": "view",
      "type": "function",
      "constant": true
    },
    {
      "inputs": [
        {
          "internalType": "uint256",
          "name": "tokenId",
          "type": "uint256"
        }
      ],
      "name": "ownerOf",
      "outputs": [
        {
          "internalType": "address",
          "name": "",
          "type": "address"
        }
      ],
      "stateMutability": "view",
      "type": "function",
      "constant": true
    },
    {
      "inputs": [],
      "name": "renounceOwnership",
      "outputs": [],
      "stateMutability": "nonpayable",
      "type": "function"
    },
    {
      "inputs": [
        {
          "internalType": "address",
          "name": "from",
          "type": "address"
        },
        {
          "internalType": "address",
          "name": "to",
          "type": "address"
        },
        {
          "internalType": "uint256",
          "name": "tokenId",
          "type": "uint256"
        }
      ],
      "name": "safeTransferFrom",
      "outputs": [],
      "stateMutability": "nonpayable",
      "type": "function"
    },
    {
      "inputs": [
        {
          "internalType": "address",
          "name": "from",
          "type": "address"
        },
        {
          "internalType": "address",
          "name": "to",
          "type": "address"
        },
        {
          "internalType": "uint256",
          "name": "tokenId",
          "type": "uint256"
        },
        {
          "internalType": "bytes",
          "name": "data",
          "type": "bytes"
        }
      ],
      "name": "safeTransferFrom",
      "outputs": [],
      "stateMutability": "nonpayable",
      "type": "function"
    },
    {
      "inputs": [
        {
          "internalType": "address",
          "name": "operator",
          "type": "address"
        },
        {
          "internalType": "bool",
          "name": "approved",
          "type": "bool"
        }
      ],
      "name": "setApprovalForAll",
      "outputs": [],
      "stateMutability": "nonpayable",
      "type": "function"
    },
    {
      "inputs": [
        {
          "internalType": "bytes4",
          "name": "interfaceId",
          "type": "bytes4"
        }
      ],
      "name": "supportsInterface",
      "outputs": [
        {
          "internalType": "bool",
          "name": "",
          "type": "bool"
        }
      ],
      "stateMutability": "view",
      "type": "function",
      "constant": true
    },
    {
      "inputs": [],
      "name": "symbol",
      "outputs": [
        {
          "internalType": "string",
          "name": "",
          "type": "string"
        }
      ],
      "stateMutability": "view",
      "type": "function",
      "constant": true
    },
    {
      "inputs": [
        {
          "internalType": "address",
          "name": "from",
          "type": "address"
        },
        {
          "internalType": "address",
          "name": "to",
          "type": "address"
        },
        {
          "internalType": "uint256",
          "name": "tokenId",
          "type": "uint256"
        }
      ],
      "name": "transferFrom",
      "outputs": [],
      "stateMutability": "nonpayable",
      "type": "function"
    },
    {
      "inputs": [
        {
          "internalType": "address",
          "name": "newOwner",
          "type": "address"
        }
      ],
      "name": "transferOwnership",
      "outputs": [],
      "stateMutability": "nonpayable",
      "type": "function"
    },
    {
      "inputs": [
        {
          "internalType": "string",
          "name": "baseURI_",
          "type": "string"
        }
      ],
      "name": "setBaseURI",
      "outputs": [],
      "stateMutability": "nonpayable",
      "type": "function"
    },
    {
      "inputs": [
        {
          "internalType": "uint256",
          "name": "tokenId",
          "type": "uint256"
        }
      ],
      "name": "tokenURI",
      "outputs": [
        {
          "internalType": "string",
          "name": "",
          "type": "string"
        }
      ],
      "stateMutability": "view",
      "type": "function",
      "constant": true
    },
    {
      "inputs": [
        {
          "internalType": "string",
          "name": "tokenURI",
          "type": "string"
        }
      ],
      "name": "claimItem",
      "outputs": [
        {
          "internalType": "uint256",
          "name": "",
          "type": "uint256"
        }
      ],
      "stateMutability": "nonpayable",
      "type": "function"
    },
    {
      "inputs": [],
      "name": "totalSupply",
      "outputs": [
        {
          "internalType": "uint256",
          "name": "",
          "type": "uint256"
        }
      ],
      "stateMutability": "view",
      "type": "function",
      "constant": true
    }
  ],
  "bytecode": "0x60806040523480156200001157600080fd5b506040518060400160405280601081526020017f536d6172744365727469666963617465000000000000000000000000000000008152506040518060400160405280600381526020017f534d4300000000000000000000000000000000000000000000000000000000008152506200009e62000092620000d860201b60201c565b620000e060201b60201c565b8160019080519060200190620000b6929190620001a4565b508060029080519060200190620000cf929190620001a4565b505050620002b9565b600033905090565b60008060009054906101000a900473ffffffffffffffffffffffffffffffffffffffff169050816000806101000a81548173ffffffffffffffffffffffffffffffffffffffff021916908373ffffffffffffffffffffffffffffffffffffffff1602179055508173ffffffffffffffffffffffffffffffffffffffff168173ffffffffffffffffffffffffffffffffffffffff167f8be0079c531659141344cd1fd0a4f28419497f9722a3daafe3b4186f6b6457e060405160405180910390a35050565b828054620001b29062000254565b90600052602060002090601f016020900481019282620001d6576000855562000222565b82601f10620001f157805160ff191683800117855562000222565b8280016001018555821562000222579182015b828111156200022157825182559160200191906001019062000204565b5b50905062000231919062000235565b5090565b5b808211156200025057600081600090555060010162000236565b5090565b600060028204905060018216806200026d57607f821691505b602082108114156200028457620002836200028a565b5b50919050565b7f4e487b7100000000000000000000000000000000000000000000000000000000600052602260045260246000fd5b612dfb80620002c96000396000f3fe608060405234801561001057600080fd5b50600436106101215760003560e01c806370a08231116100ad578063a850e8bd11610071578063a850e8bd146102f4578063b88d4fde14610324578063c87b56dd14610340578063e985e9c514610370578063f2fde38b146103a057610121565b806370a0823114610262578063715018a6146102925780638da5cb5b1461029c57806395d89b41146102ba578063a22cb465146102d857610121565b806318160ddd116100f457806318160ddd146101c057806323b872dd146101de57806342842e0e146101fa57806355f804b3146102165780636352211e1461023257610121565b806301ffc9a71461012657806306fdde0314610156578063081812fc14610174578063095ea7b3146101a4575b600080fd5b610140600480360381019061013b9190611eee565b6103bc565b60405161014d9190612326565b60405180910390f35b61015e61049e565b60405161016b9190612341565b60405180910390f35b61018e60048036038101906101899190611f91565b610530565b60405161019b91906122bf565b60405180910390f35b6101be60048036038101906101b99190611eae565b610576565b005b6101c861068e565b6040516101d59190612543565b60405180910390f35b6101f860048036038101906101f39190611d98565b61069f565b005b610214600480360381019061020f9190611d98565b6106ff565b005b610230600480360381019061022b9190611f48565b61071f565b005b61024c60048036038101906102479190611f91565b610741565b60405161025991906122bf565b60405180910390f35b61027c60048036038101906102779190611d2b565b6107f3565b6040516102899190612543565b60405180910390f35b61029a6108ab565b005b6102a46108bf565b6040516102b191906122bf565b60405180910390f35b6102c26108e8565b6040516102cf9190612341565b60405180910390f35b6102f260048036038101906102ed9190611e6e565b61097a565b005b61030e60048036038101906103099190611f48565b610990565b60405161031b9190612543565b60405180910390f35b61033e60048036038101906103399190611deb565b6109c7565b005b61035a60048036038101906103559190611f91565b610a29565b6040516103679190612341565b60405180910390f35b61038a60048036038101906103859190611d58565b610b9c565b6040516103979190612326565b60405180910390f35b6103ba60048036038101906103b59190611d2b565b610c30565b005b60007f80ac58cd000000000000000000000000000000000000000000000000000000007bffffffffffffffffffffffffffffffffffffffffffffffffffffffff1916827bffffffffffffffffffffffffffffffffffffffffffffffffffffffff1916148061048757507f5b5e139f000000000000000000000000000000000000000000000000000000007bffffffffffffffffffffffffffffffffffffffffffffffffffffffff1916827bffffffffffffffffffffffffffffffffffffffffffffffffffffffff1916145b80610497575061049682610cb4565b5b9050919050565b6060600180546104ad90612799565b80601f01602080910402602001604051908101604052809291908181526020018280546104d990612799565b80156105265780601f106104fb57610100808354040283529160200191610526565b820191906000526020600020905b81548152906001019060200180831161050957829003601f168201915b5050505050905090565b600061053b82610d1e565b6005600083815260200190815260200160002060009054906101000a900473ffffffffffffffffffffffffffffffffffffffff169050919050565b600061058182610741565b90508073ffffffffffffffffffffffffffffffffffffffff168373ffffffffffffffffffffffffffffffffffffffff1614156105f2576040517f08c379a00000000000000000000000000000000000000000000000000000000081526004016105e990612503565b60405180910390fd5b8073ffffffffffffffffffffffffffffffffffffffff16610611610d69565b73ffffffffffffffffffffffffffffffffffffffff161480610640575061063f8161063a610d69565b610b9c565b5b61067f576040517f08c379a000000000000000000000000000000000000000000000000000000000815260040161067690612443565b60405180910390fd5b6106898383610d71565b505050565b600061069a6007610e2a565b905090565b6106b06106aa610d69565b82610e38565b6106ef576040517f08c379a00000000000000000000000000000000000000000000000000000000081526004016106e690612523565b60405180910390fd5b6106fa838383610ecd565b505050565b61071a838383604051806020016040528060008152506109c7565b505050565b610727611134565b806009908051906020019061073d929190611b3f565b5050565b6000806003600084815260200190815260200160002060009054906101000a900473ffffffffffffffffffffffffffffffffffffffff169050600073ffffffffffffffffffffffffffffffffffffffff168173ffffffffffffffffffffffffffffffffffffffff1614156107ea576040517f08c379a00000000000000000000000000000000000000000000000000000000081526004016107e1906124e3565b60405180910390fd5b80915050919050565b60008073ffffffffffffffffffffffffffffffffffffffff168273ffffffffffffffffffffffffffffffffffffffff161415610864576040517f08c379a000000000000000000000000000000000000000000000000000000000815260040161085b90612423565b60405180910390fd5b600460008373ffffffffffffffffffffffffffffffffffffffff1673ffffffffffffffffffffffffffffffffffffffff168152602001908152602001600020549050919050565b6108b3611134565b6108bd60006111b2565b565b60008060009054906101000a900473ffffffffffffffffffffffffffffffffffffffff16905090565b6060600280546108f790612799565b80601f016020809104026020016040519081016040528092919081815260200182805461092390612799565b80156109705780601f1061094557610100808354040283529160200191610970565b820191906000526020600020905b81548152906001019060200180831161095357829003601f168201915b5050505050905090565b61098c610985610d69565b8383611276565b5050565b600061099c60076113e3565b60006109a86007610e2a565b90506109b433826113f9565b6109be8184611417565b80915050919050565b6109d86109d2610d69565b83610e38565b610a17576040517f08c379a0000000000000000000000000000000000000000000000000000000008152600401610a0e90612523565b60405180910390fd5b610a238484848461148b565b50505050565b6060610a34826114e7565b610a73576040517f08c379a0000000000000000000000000000000000000000000000000000000008152600401610a6a906124c3565b60405180910390fd5b6000600860008481526020019081526020016000208054610a9390612799565b80601f0160208091040260200160405190810160405280929190818152602001828054610abf90612799565b8015610b0c5780601f10610ae157610100808354040283529160200191610b0c565b820191906000526020600020905b815481529060010190602001808311610aef57829003601f168201915b505050505090506000610b1d611553565b9050600081511415610b33578192505050610b97565b600082511115610b68578082604051602001610b5092919061229b565b60405160208183030381529060405292505050610b97565b80610b72856115e5565b604051602001610b8392919061229b565b604051602081830303815290604052925050505b919050565b6000600660008473ffffffffffffffffffffffffffffffffffffffff1673ffffffffffffffffffffffffffffffffffffffff16815260200190815260200160002060008373ffffffffffffffffffffffffffffffffffffffff1673ffffffffffffffffffffffffffffffffffffffff16815260200190815260200160002060009054906101000a900460ff16905092915050565b610c38611134565b600073ffffffffffffffffffffffffffffffffffffffff168173ffffffffffffffffffffffffffffffffffffffff161415610ca8576040517f08c379a0000000000000000000000000000000000000000000000000000000008152600401610c9f90612383565b60405180910390fd5b610cb1816111b2565b50565b60007f01ffc9a7000000000000000000000000000000000000000000000000000000007bffffffffffffffffffffffffffffffffffffffffffffffffffffffff1916827bffffffffffffffffffffffffffffffffffffffffffffffffffffffff1916149050919050565b610d27816114e7565b610d66576040517f08c379a0000000000000000000000000000000000000000000000000000000008152600401610d5d906124e3565b60405180910390fd5b50565b600033905090565b816005600083815260200190815260200160002060006101000a81548173ffffffffffffffffffffffffffffffffffffffff021916908373ffffffffffffffffffffffffffffffffffffffff160217905550808273ffffffffffffffffffffffffffffffffffffffff16610de483610741565b73ffffffffffffffffffffffffffffffffffffffff167f8c5be1e5ebec7d5bd14f71427d1e84f3dd0314c0f7b2291e5b200ac8c7c3b92560405160405180910390a45050565b600081600001549050919050565b600080610e4483610741565b90508073ffffffffffffffffffffffffffffffffffffffff168473ffffffffffffffffffffffffffffffffffffffff161480610e865750610e858185610b9c565b5b80610ec457508373ffffffffffffffffffffffffffffffffffffffff16610eac84610530565b73ffffffffffffffffffffffffffffffffffffffff16145b91505092915050565b8273ffffffffffffffffffffffffffffffffffffffff16610eed82610741565b73ffffffffffffffffffffffffffffffffffffffff1614610f43576040517f08c379a0000000000000000000000000000000000000000000000000000000008152600401610f3a906123a3565b60405180910390fd5b600073ffffffffffffffffffffffffffffffffffffffff168273ffffffffffffffffffffffffffffffffffffffff161415610fb3576040517f08c379a0000000000000000000000000000000000000000000000000000000008152600401610faa906123e3565b60405180910390fd5b610fbe838383611746565b610fc9600082610d71565b6001600460008573ffffffffffffffffffffffffffffffffffffffff1673ffffffffffffffffffffffffffffffffffffffff168152602001908152602001600020600082825461101991906126af565b925050819055506001600460008473ffffffffffffffffffffffffffffffffffffffff1673ffffffffffffffffffffffffffffffffffffffff16815260200190815260200160002060008282546110709190612628565b92505081905550816003600083815260200190815260200160002060006101000a81548173ffffffffffffffffffffffffffffffffffffffff021916908373ffffffffffffffffffffffffffffffffffffffff160217905550808273ffffffffffffffffffffffffffffffffffffffff168473ffffffffffffffffffffffffffffffffffffffff167fddf252ad1be2c89b69c2b068fc378daa952ba7f163c4a11628f55a4df523b3ef60405160405180910390a461112f83838361174b565b505050565b61113c610d69565b73ffffffffffffffffffffffffffffffffffffffff1661115a6108bf565b73ffffffffffffffffffffffffffffffffffffffff16146111b0576040517f08c379a00000000000000000000000000000000000000000000000000000000081526004016111a7906124a3565b60405180910390fd5b565b60008060009054906101000a900473ffffffffffffffffffffffffffffffffffffffff169050816000806101000a81548173ffffffffffffffffffffffffffffffffffffffff021916908373ffffffffffffffffffffffffffffffffffffffff1602179055508173ffffffffffffffffffffffffffffffffffffffff168173ffffffffffffffffffffffffffffffffffffffff167f8be0079c531659141344cd1fd0a4f28419497f9722a3daafe3b4186f6b6457e060405160405180910390a35050565b8173ffffffffffffffffffffffffffffffffffffffff168373ffffffffffffffffffffffffffffffffffffffff1614156112e5576040517f08c379a00000000000000000000000000000000000000000000000000000000081526004016112dc90612403565b60405180910390fd5b80600660008573ffffffffffffffffffffffffffffffffffffffff1673ffffffffffffffffffffffffffffffffffffffff16815260200190815260200160002060008473ffffffffffffffffffffffffffffffffffffffff1673ffffffffffffffffffffffffffffffffffffffff16815260200190815260200160002060006101000a81548160ff0219169083151502179055508173ffffffffffffffffffffffffffffffffffffffff168373ffffffffffffffffffffffffffffffffffffffff167f17307eab39ab6107e8899845ad3d59bd9653f200f220920489ca2b5937696c31836040516113d69190612326565b60405180910390a3505050565b6001816000016000828254019250508190555050565b611413828260405180602001604052806000815250611750565b5050565b611420826114e7565b61145f576040517f08c379a000000000000000000000000000000000000000000000000000000000815260040161145690612483565b60405180910390fd5b80600860008481526020019081526020016000209080519060200190611486929190611b3f565b505050565b611496848484610ecd565b6114a2848484846117ab565b6114e1576040517f08c379a00000000000000000000000000000000000000000000000000000000081526004016114d890612363565b60405180910390fd5b50505050565b60008073ffffffffffffffffffffffffffffffffffffffff166003600084815260200190815260200160002060009054906101000a900473ffffffffffffffffffffffffffffffffffffffff1673ffffffffffffffffffffffffffffffffffffffff1614159050919050565b60606009805461156290612799565b80601f016020809104026020016040519081016040528092919081815260200182805461158e90612799565b80156115db5780601f106115b0576101008083540402835291602001916115db565b820191906000526020600020905b8154815290600101906020018083116115be57829003601f168201915b5050505050905090565b6060600082141561162d576040518060400160405280600181526020017f30000000000000000000000000000000000000000000000000000000000000008152509050611741565b600082905060005b6000821461165f578080611648906127fc565b915050600a82611658919061267e565b9150611635565b60008167ffffffffffffffff81111561167b5761167a612932565b5b6040519080825280601f01601f1916602001820160405280156116ad5781602001600182028036833780820191505090505b5090505b6000851461173a576001826116c691906126af565b9150600a856116d59190612845565b60306116e19190612628565b60f81b8183815181106116f7576116f6612903565b5b60200101907effffffffffffffffffffffffffffffffffffffffffffffffffffffffffffff1916908160001a905350600a85611733919061267e565b94506116b1565b8093505050505b919050565b505050565b505050565b61175a8383611942565b61176760008484846117ab565b6117a6576040517f08c379a000000000000000000000000000000000000000000000000000000000815260040161179d90612363565b60405180910390fd5b505050565b60006117cc8473ffffffffffffffffffffffffffffffffffffffff16611b1c565b15611935578373ffffffffffffffffffffffffffffffffffffffff1663150b7a026117f5610d69565b8786866040518563ffffffff1660e01b815260040161181794939291906122da565b602060405180830381600087803b15801561183157600080fd5b505af192505050801561186257506040513d601f19601f8201168201806040525081019061185f9190611f1b565b60015b6118e5573d8060008114611892576040519150601f19603f3d011682016040523d82523d6000602084013e611897565b606091505b506000815114156118dd576040517f08c379a00000000000000000000000000000000000000000000000000000000081526004016118d490612363565b60405180910390fd5b805181602001fd5b63150b7a0260e01b7bffffffffffffffffffffffffffffffffffffffffffffffffffffffff1916817bffffffffffffffffffffffffffffffffffffffffffffffffffffffff19161491505061193a565b600190505b949350505050565b600073ffffffffffffffffffffffffffffffffffffffff168273ffffffffffffffffffffffffffffffffffffffff1614156119b2576040517f08c379a00000000000000000000000000000000000000000000000000000000081526004016119a990612463565b60405180910390fd5b6119bb816114e7565b156119fb576040517f08c379a00000000000000000000000000000000000000000000000000000000081526004016119f2906123c3565b60405180910390fd5b611a0760008383611746565b6001600460008473ffffffffffffffffffffffffffffffffffffffff1673ffffffffffffffffffffffffffffffffffffffff1681526020019081526020016000206000828254611a579190612628565b92505081905550816003600083815260200190815260200160002060006101000a81548173ffffffffffffffffffffffffffffffffffffffff021916908373ffffffffffffffffffffffffffffffffffffffff160217905550808273ffffffffffffffffffffffffffffffffffffffff16600073ffffffffffffffffffffffffffffffffffffffff167fddf252ad1be2c89b69c2b068fc378daa952ba7f163c4a11628f55a4df523b3ef60405160405180910390a4611b186000838361174b565b5050565b6000808273ffffffffffffffffffffffffffffffffffffffff163b119050919050565b828054611b4b90612799565b90600052602060002090601f016020900481019282611b6d5760008555611bb4565b82601f10611b8657805160ff1916838001178555611bb4565b82800160010185558215611bb4579182015b82811115611bb3578251825591602001919060010190611b98565b5b509050611bc19190611bc5565b5090565b5b80821115611bde576000816000905550600101611bc6565b5090565b6000611bf5611bf084612583565b61255e565b905082815260208101848484011115611c1157611c10612966565b5b611c1c848285612757565b509392505050565b6000611c37611c32846125b4565b61255e565b905082815260208101848484011115611c5357611c52612966565b5b611c5e848285612757565b509392505050565b600081359050611c7581612d69565b92915050565b600081359050611c8a81612d80565b92915050565b600081359050611c9f81612d97565b92915050565b600081519050611cb481612d97565b92915050565b600082601f830112611ccf57611cce612961565b5b8135611cdf848260208601611be2565b91505092915050565b600082601f830112611cfd57611cfc612961565b5b8135611d0d848260208601611c24565b91505092915050565b600081359050611d2581612dae565b92915050565b600060208284031215611d4157611d40612970565b5b6000611d4f84828501611c66565b91505092915050565b60008060408385031215611d6f57611d6e612970565b5b6000611d7d85828601611c66565b9250506020611d8e85828601611c66565b9150509250929050565b600080600060608486031215611db157611db0612970565b5b6000611dbf86828701611c66565b9350506020611dd086828701611c66565b9250506040611de186828701611d16565b9150509250925092565b60008060008060808587031215611e0557611e04612970565b5b6000611e1387828801611c66565b9450506020611e2487828801611c66565b9350506040611e3587828801611d16565b925050606085013567ffffffffffffffff811115611e5657611e5561296b565b5b611e6287828801611cba565b91505092959194509250565b60008060408385031215611e8557611e84612970565b5b6000611e9385828601611c66565b9250506020611ea485828601611c7b565b9150509250929050565b60008060408385031215611ec557611ec4612970565b5b6000611ed385828601611c66565b9250506020611ee485828601611d16565b9150509250929050565b600060208284031215611f0457611f03612970565b5b6000611f1284828501611c90565b91505092915050565b600060208284031215611f3157611f30612970565b5b6000611f3f84828501611ca5565b91505092915050565b600060208284031215611f5e57611f5d612970565b5b600082013567ffffffffffffffff811115611f7c57611f7b61296b565b5b611f8884828501611ce8565b91505092915050565b600060208284031215611fa757611fa6612970565b5b6000611fb584828501611d16565b91505092915050565b611fc7816126e3565b82525050565b611fd6816126f5565b82525050565b6000611fe7826125e5565b611ff181856125fb565b9350612001818560208601612766565b61200a81612975565b840191505092915050565b6000612020826125f0565b61202a818561260c565b935061203a818560208601612766565b61204381612975565b840191505092915050565b6000612059826125f0565b612063818561261d565b9350612073818560208601612766565b80840191505092915050565b600061208c60328361260c565b915061209782612986565b604082019050919050565b60006120af60268361260c565b91506120ba826129d5565b604082019050919050565b60006120d260258361260c565b91506120dd82612a24565b604082019050919050565b60006120f5601c8361260c565b915061210082612a73565b602082019050919050565b600061211860248361260c565b915061212382612a9c565b604082019050919050565b600061213b60198361260c565b915061214682612aeb565b602082019050919050565b600061215e60298361260c565b915061216982612b14565b604082019050919050565b6000612181603e8361260c565b915061218c82612b63565b604082019050919050565b60006121a460208361260c565b91506121af82612bb2565b602082019050919050565b60006121c7602c8361260c565b91506121d282612bdb565b604082019050919050565b60006121ea60208361260c565b91506121f582612c2a565b602082019050919050565b600061220d602f8361260c565b915061221882612c53565b604082019050919050565b600061223060188361260c565b915061223b82612ca2565b602082019050919050565b600061225360218361260c565b915061225e82612ccb565b604082019050919050565b6000612276602e8361260c565b915061228182612d1a565b604082019050919050565b6122958161274d565b82525050565b60006122a7828561204e565b91506122b3828461204e565b91508190509392505050565b60006020820190506122d46000830184611fbe565b92915050565b60006080820190506122ef6000830187611fbe565b6122fc6020830186611fbe565b612309604083018561228c565b818103606083015261231b8184611fdc565b905095945050505050565b600060208201905061233b6000830184611fcd565b92915050565b6000602082019050818103600083015261235b8184612015565b905092915050565b6000602082019050818103600083015261237c8161207f565b9050919050565b6000602082019050818103600083015261239c816120a2565b9050919050565b600060208201905081810360008301526123bc816120c5565b9050919050565b600060208201905081810360008301526123dc816120e8565b9050919050565b600060208201905081810360008301526123fc8161210b565b9050919050565b6000602082019050818103600083015261241c8161212e565b9050919050565b6000602082019050818103600083015261243c81612151565b9050919050565b6000602082019050818103600083015261245c81612174565b9050919050565b6000602082019050818103600083015261247c81612197565b9050919050565b6000602082019050818103600083015261249c816121ba565b9050919050565b600060208201905081810360008301526124bc816121dd565b9050919050565b600060208201905081810360008301526124dc81612200565b9050919050565b600060208201905081810360008301526124fc81612223565b9050919050565b6000602082019050818103600083015261251c81612246565b9050919050565b6000602082019050818103600083015261253c81612269565b9050919050565b6000602082019050612558600083018461228c565b92915050565b6000612568612579565b905061257482826127cb565b919050565b6000604051905090565b600067ffffffffffffffff82111561259e5761259d612932565b5b6125a782612975565b9050602081019050919050565b600067ffffffffffffffff8211156125cf576125ce612932565b5b6125d882612975565b9050602081019050919050565b600081519050919050565b600081519050919050565b600082825260208201905092915050565b600082825260208201905092915050565b600081905092915050565b60006126338261274d565b915061263e8361274d565b9250827fffffffffffffffffffffffffffffffffffffffffffffffffffffffffffffffff0382111561267357612672612876565b5b828201905092915050565b60006126898261274d565b91506126948361274d565b9250826126a4576126a36128a5565b5b828204905092915050565b60006126ba8261274d565b91506126c58361274d565b9250828210156126d8576126d7612876565b5b828203905092915050565b60006126ee8261272d565b9050919050565b60008115159050919050565b60007fffffffff0000000000000000000000000000000000000000000000000000000082169050919050565b600073ffffffffffffffffffffffffffffffffffffffff82169050919050565b6000819050919050565b82818337600083830152505050565b60005b83811015612784578082015181840152602081019050612769565b83811115612793576000848401525b50505050565b600060028204905060018216806127b157607f821691505b602082108114156127c5576127c46128d4565b5b50919050565b6127d482612975565b810181811067ffffffffffffffff821117156127f3576127f2612932565b5b80604052505050565b60006128078261274d565b91507fffffffffffffffffffffffffffffffffffffffffffffffffffffffffffffffff82141561283a57612839612876565b5b600182019050919050565b60006128508261274d565b915061285b8361274d565b92508261286b5761286a6128a5565b5b828206905092915050565b7f4e487b7100000000000000000000000000000000000000000000000000000000600052601160045260246000fd5b7f4e487b7100000000000000000000000000000000000000000000000000000000600052601260045260246000fd5b7f4e487b7100000000000000000000000000000000000000000000000000000000600052602260045260246000fd5b7f4e487b7100000000000000000000000000000000000000000000000000000000600052603260045260246000fd5b7f4e487b7100000000000000000000000000000000000000000000000000000000600052604160045260246000fd5b600080fd5b600080fd5b600080fd5b600080fd5b6000601f19601f8301169050919050565b7f4552433732313a207472616e7366657220746f206e6f6e20455243373231526560008201527f63656976657220696d706c656d656e7465720000000000000000000000000000602082015250565b7f4f776e61626c653a206e6577206f776e657220697320746865207a65726f206160008201527f6464726573730000000000000000000000000000000000000000000000000000602082015250565b7f4552433732313a207472616e736665722066726f6d20696e636f72726563742060008201527f6f776e6572000000000000000000000000000000000000000000000000000000602082015250565b7f4552433732313a20746f6b656e20616c7265616479206d696e74656400000000600082015250565b7f4552433732313a207472616e7366657220746f20746865207a65726f2061646460008201527f7265737300000000000000000000000000000000000000000000000000000000602082015250565b7f4552433732313a20617070726f766520746f2063616c6c657200000000000000600082015250565b7f4552433732313a2061646472657373207a65726f206973206e6f74206120766160008201527f6c6964206f776e65720000000000000000000000000000000000000000000000602082015250565b7f4552433732313a20617070726f76652063616c6c6572206973206e6f7420746f60008201527f6b656e206f776e6572206e6f7220617070726f76656420666f7220616c6c0000602082015250565b7f4552433732313a206d696e7420746f20746865207a65726f2061646472657373600082015250565b7f4552433732314d657461646174613a2055524920736574206f66206e6f6e657860008201527f697374656e7420746f6b656e0000000000000000000000000000000000000000602082015250565b7f4f776e61626c653a2063616c6c6572206973206e6f7420746865206f776e6572600082015250565b7f4552433732314d657461646174613a2055524920717565727920666f72206e6f60008201527f6e6578697374656e7420746f6b656e0000000000000000000000000000000000602082015250565b7f4552433732313a20696e76616c696420746f6b656e2049440000000000000000600082015250565b7f4552433732313a20617070726f76616c20746f2063757272656e74206f776e6560008201527f7200000000000000000000000000000000000000000000000000000000000000602082015250565b7f4552433732313a2063616c6c6572206973206e6f7420746f6b656e206f776e6560008201527f72206e6f7220617070726f766564000000000000000000000000000000000000602082015250565b612d72816126e3565b8114612d7d57600080fd5b50565b612d89816126f5565b8114612d9457600080fd5b50565b612da081612701565b8114612dab57600080fd5b50565b612db78161274d565b8114612dc257600080fd5b5056fea2646970667358221220c654cbae12a5717f79653c15879caaae2931a4807e99089bd9e8b54c88b08e0864736f6c63430008070033",
  "immutableReferences": {},
  "source": "// SPDX-License-Identifier: MIT\npragma solidity >=0.4.22 <0.9.0;\n\nimport \"@openzeppelin/contracts/token/ERC721/ERC721.sol\";\nimport \"@openzeppelin/contracts/utils/Counters.sol\";\nimport \"@openzeppelin/contracts/access/Ownable.sol\";\n\ncontract SmartCertificate is Ownable, ERC721 {\n    using Counters for Counters.Counter;\n    Counters.Counter private _tokenIds;\n    using Strings for uint256;\n    // Optional mapping for token URIs\n    mapping(uint256 => string) private _tokenURIs;\n\n    // Base URI\n    string private _baseURIextended;\n\n    constructor() public ERC721(\"SmartCertificate\", \"SMC\") {}\n\n    function setBaseURI(string memory baseURI_) external onlyOwner {\n        _baseURIextended = baseURI_;\n    }\n\n    function _setTokenURI(uint256 tokenId, string memory _tokenURI)\n        internal\n        virtual\n    {\n        require(\n            _exists(tokenId),\n            \"ERC721Metadata: URI set of nonexistent token\"\n        );\n        _tokenURIs[tokenId] = _tokenURI;\n    }\n\n    function _baseURI() internal view virtual override returns (string memory) {\n        return _baseURIextended;\n    }\n\n    function tokenURI(uint256 tokenId)\n        public\n        view\n        virtual\n        override\n        returns (string memory)\n    {\n        require(\n            _exists(tokenId),\n            \"ERC721Metadata: URI query for nonexistent token\"\n        );\n\n        string memory _tokenURI = _tokenURIs[tokenId];\n        string memory base = _baseURI();\n\n        // If there is no base URI, return the token URI.\n        if (bytes(base).length == 0) {\n            return _tokenURI;\n        }\n        // If both are set, concatenate the baseURI and tokenURI (via abi.encodePacked).\n        if (bytes(_tokenURI).length > 0) {\n            return string(abi.encodePacked(base, _tokenURI));\n        }\n        // If there is a baseURI but no tokenURI, concatenate the tokenID to the baseURI.\n        return string(abi.encodePacked(base, tokenId.toString()));\n    }\n\n    function claimItem(string memory tokenURI) public returns (uint256) {\n        _tokenIds.increment();\n        uint256 newItemId = _tokenIds.current();\n        _safeMint(msg.sender, newItemId);\n        _setTokenURI(newItemId, tokenURI);\n        return newItemId;\n    }\n\n    function totalSupply() public view returns (uint256) {\n        return _tokenIds.current();\n    }\n}\n",
  "sourcePath": "/Applications/projects/nft/dito/contracts/SmartCertificate.sol",
  "compiler": {
    "name": "solc",
    "version": "0.8.7+commit.e28d00a7.Emscripten.clang"
  },
  "schemaVersion": "3.4.7",
  "updatedAt": "2022-10-13T09:23:13.596Z",
  "networkType": "ethereum",
  "devdoc": {
    "kind": "dev",
    "methods": {
      "approve(address,uint256)": {
        "details": "See {IERC721-approve}."
      },
      "balanceOf(address)": {
        "details": "See {IERC721-balanceOf}."
      },
      "getApproved(uint256)": {
        "details": "See {IERC721-getApproved}."
      },
      "isApprovedForAll(address,address)": {
        "details": "See {IERC721-isApprovedForAll}."
      },
      "name()": {
        "details": "See {IERC721Metadata-name}."
      },
      "owner()": {
        "details": "Returns the address of the current owner."
      },
      "ownerOf(uint256)": {
        "details": "See {IERC721-ownerOf}."
      },
      "renounceOwnership()": {
        "details": "Leaves the contract without owner. It will not be possible to call `onlyOwner` functions anymore. Can only be called by the current owner. NOTE: Renouncing ownership will leave the contract without an owner, thereby removing any functionality that is only available to the owner."
      },
      "safeTransferFrom(address,address,uint256)": {
        "details": "See {IERC721-safeTransferFrom}."
      },
      "safeTransferFrom(address,address,uint256,bytes)": {
        "details": "See {IERC721-safeTransferFrom}."
      },
      "setApprovalForAll(address,bool)": {
        "details": "See {IERC721-setApprovalForAll}."
      },
      "supportsInterface(bytes4)": {
        "details": "See {IERC165-supportsInterface}."
      },
      "symbol()": {
        "details": "See {IERC721Metadata-symbol}."
      },
      "tokenURI(uint256)": {
        "details": "See {IERC721Metadata-tokenURI}."
      },
      "transferFrom(address,address,uint256)": {
        "details": "See {IERC721-transferFrom}."
      },
      "transferOwnership(address)": {
        "details": "Transfers ownership of the contract to a new account (`newOwner`). Can only be called by the current owner."
      }
    },
    "version": 1
  },
  "userdoc": {
    "kind": "user",
    "methods": {},
    "version": 1
  }
}